:020000000C945E
:10000200B70C0C9400000C9400000C9400000C94AB
:1000120000000C9400000C9400000C9400000C945E
:1000220000000C9400000C9400000C9400000C944E
:1000320000000C9400000C9400000C9400000C943E
:1000420000000C9400000C9400000C9400000C942E
:1000520000000060006000600460046004600460EE
:10006200046004600460036000600060006000607F
:1000720000600150065008500150065008500C50C4
:100082000250015001501E500050005000500050CC
:10009200005001600E60106004600460046004603F
:1000A200046004600460036000600060006000603F
:1000B200006000400040004000400040004000401E
:1000C2000240014001400E40004005400040024015
:1000D200004000400040004000400040004000401E
:1000E2000240014001400E400040004002400040FA
:1000F20000400040004000400040054000400040F9
:100102000240014001400E400040004000400040DB
:1001120000400040004002400040054000400040D6
:100122000240014001400E400040004000400040BB
:1001320000400080008000800080008000800080FD
:10014200188024800280FF80008000800880008068
:1001520000800090009000900090009000907090BD
:100162008F903490429081908890809041903E9000
:10017200009000800080008000800080008000806D
:10018200188024800280FF80008000800080008030
:10019200008000900090009000900090009070907D
:1001A2008F903490429081908090809041903E90C8
:1001B200009000800080008000801080008000801D
:1001C200188024800280FF800080008000800080F0
:1001D200008000900090009020900090009070901D
:1001E2008F903490429081908090809041903E9088
:1001F2000090009000900090009010900890149051
:10020200469049901990F6910090009000900090CD
:100212000090009000900090089000901490009040
:10022200009049904990B691009000900090009003
:10023200009000B000B000B000B000B000B000B05C
:100242000EB011B121B1FEB600B000B000B000B0E6
:1002520000B000400030003000300030003000308C
:100262000230073002300030003000300030003001
:100272000030003000200020002002200220012057
:100282000120012001200120012001200020002066
:1002920000200060005000500050115019500E50C4
:1002A20008500450045004500450045000500050B0
:1002B20000500070006000600060256035601A60C8
:1002C20010600860086008600860086000600060F4
:1002D20000600080007000700070267078703970C5
:1002E2003670107010701070107010700070007006
:1002F2000070008000700070007010700870147040
:10030200227022704170497049703670007000701E
:10031200007000700060006000600C60106020607F
:1003220021601E6004600860106020600060006050
:100332000060008000700070007041704170227097
:1003420022701470147008700870087000700070C9
:1003520000700080007000700070087008700870F3
:10036200147014702270227041704170007000701D
:10037200007000600050005000500C50125012509B
:100382000E500250025002500150015000500050D5
:10039200005000B000B000B000B010B000B000B02B
:1003A2000EB011B121B1FEB600B000B000B000B085
:1003B20000B00060006000600060006000600C60DF
:1003C2001260106009603E600060006000600060C2
:1003D20000600040004000400040004000400040FB
:1003E2000340034000400040004000400040004005
:1003F20000400040004000400040004000400140FA
:1004020002400340034000400040004000400040E2
:1004120000400040004000400040004000400340D7
:1004220003400140024000400040004000400040C4
:1004320000400040004000400040014002400340B4
:1004420003400040004003400340004000400040A1
:10045200004000400040004000400040004000409A
:10046200004000400040004000400040004000408A
:1004720000400080008018803C803C803C801880D6
:10048200188018800080188018800080008000800A
:10049200008000806380638063802280008000800F
:1004A200008000800080008000800080008000804A
:1004B2000080008000800080368036807F80368019
:1004C200368036807F8036803680008000800080D3
:1004D20000800C800C803E806380618060803E8062
:1004E20003800380438063803E800C800C80008008
:1004F2000080008000800080008000806180638036
:1005020006800C8018803380638000800080008029
:1005120000800080008000801C80368036801C8035
:100522003B806E80668066803B8000800080008019
:1005320000800080308030803080608000800080C9
:1005420000800080008000800080008000800080A9
:100552000080008000800C801880188030803080FD
:1005620030803080188018800C80008000800080ED
:1005720000800080008018800C800C80068006803D
:10058200068006800C800C8018800080008000802D
:1005920000800080008000800080428066803C8075
:1005A200FF803C8066804280008000800080008066
:1005B20000800080008000800080188018801880F1
:1005C200FF801880188018800080008000800080E2
:1005D2000080008000800080008000800080008019
:1005E2000080008000801880188018803080008091
:1005F20000800080008000800080008000800080F9
:10060200FF800080008000800080008000800080E9
:1006120000800080008000800080008000800080D8
:100622000080008000801880188000800080008098
:100632000080008000800180038007800E801C8083
:1006420038807080E080C0808080008000800080E0
:100652000080008000803E806380638063806B80C6
:100662006B806380638063803E80008000800080B6
:100672000080008000800C801C803C800C800C80FC
:100682000C800C800C800C803F80008000800080F9
:100692000080008000803E806380038006800C80A2
:1006A20018803080618063807F80008000800080BD
:1006B2000080008000803E806380038003801E8073
:1006C20003800380038063803E800080008000807E
:1006D20000800080008006800E801E80368066804A
:1006E20066807F80068006800F8000800080008008
:1006F2000080008000807F806080608060807E80DB
:1007020003800380638073803E80008000800080CD
:100712000080008000801C803080608060807E804D
:1007220063806380638063803E80008000800080FD
:100732000080008000807F806380038006800680C6
:100742000C800C8018801880188000800080008047
:100752000080008000803E806380638063803E80F2
:1007620063806380638063803E80008000800080BD
:100772000080008000803E806380638063806380AD
:100782003F800380038006803C80008000800080E0
:100792000080008000800080008000801880188027
:1007A2000080008000801880188000800080008017
:1007B2000080008000800080008000801880188007
:1007C20000800080008018801880188030800080AF
:1007D200008000800080008006800C8018803080BD
:1007E2006080308018800C8006800080008000804D
:1007F20000800080008000800080008000807E8079
:10080200008000807E800080008000800080008068
:1008120000800080008000806080308018800C8022
:1008220006800C801880308060800080008000800C
:100832000080008000803E806380638006800C80A0
:100842000C800C8000800C800C8000800080008076
:100852000080008000803E80638063806F806B80B8
:100862006B806E80608060803E80008000800080AF
:1008720000800080008008801C8036806380638056
:1008820063807F806380638063800080008000805B
:100892000080008000807E803380338033803E8001
:1008A20033803380338033807E80008000800080FC
:1008B2000080008000801E803380618060806080C4
:1008C20060806080618033801E80008000800080B4
:1008D2000080008000807C803680338033803380CB
:1008E20033803380338036807C80008000800080BB
:1008F2000080008000807F803380318034803C80A3
:1009020034803080318033807F800080008000809E
:100912000080008000807F803380318034803C8082
:100922003480308030803080788000800080008089
:100932000080008000801E80338061806080608043
:100942006F806380638037801D800080008000801C
:1009520000800080008063806380638063807F808A
:100962006380638063806380638000800080008096
:100972000080008000803C801880188018801880D9
:1009820018801880188018803C80008000800080C9
:100992000080008000800F8006800680068006802E
:1009A20006800680668066803C8000800080008031
:1009B20000800080008073803380368036803C80E7
:1009C20036803680338033807380008000800080E0
:1009D20000800080008078803080308030803080DD
:1009E20030803080318033807F80008000800080C2
:1009F200008000800080638077807F806B806380CE
:100A020063806380638063806380008000800080F5
:100A12000080008000806380638073807B807F80A1
:100A22006F806780638063806380008000800080C5
:100A32000080008000801C80368063806380638039
:100A420063806380638036801C8000800080008029
:100A52000080008000807E803380338033803E803F
:100A6200308030803080308078800080008000804C
:100A72000080008000803E806380638063806380AA
:100A8200638063806B806F803E8006800780008079
:100A92000080008000807E803380338033803E80FF
:100AA20036803680338033807380008000800080FF
:100AB2000080008000803E806380638030801C80E4
:100AC20006800380638063803E8000800080008017
:100AD200008000800080FF80DB8099801880188071
:100AE20018801880188018803C8000800080008068
:100AF2000080008000806380638063806380638005
:100B020063806380638063803E8000800080008019
:100B120000800080008063806380638063806380E4
:100B22006380638036801C800880008000800080A3
:100B320000800080008063806380638063806380C4
:100B42006B806B807F8036803680008000800080E2
:100B5200008000800080C380C38066803C80188053
:100B620018803C806680C380C38000800080008043
:100B7200008000800080C380C380C38066803C8088
:100B820018801880188018803C80008000800080C7
:100B92000080008000807F806380438006800C801C
:100BA20018803080618063807F80008000800080B8
:100BB2000080008000803C80308030803080308037
:100BC20030803080308030803C8000800080008027
:100BD2000080008000808080C080E080708038804B
:100BE2001C800E80078003800180008000800080CE
:100BF2000080008000803C800C800C800C800C8087
:100C02000C800C800C800C803C8000800080008076
:100C1200008008801C803680638000800080008015
:100C220000800080008000800080008000800080C2
:100C320000800080008000800080008000800080B2
:100C420000800080008000800080FF8000800080A3
:100C52000080188018800C80008000800080008056
:100C62000080008000800080008000800080008082
:100C72000080008000800080008000803C804680F0
:100C820006803E80668066803B8000800080008017
:100C92000080008000807080308030803C80368010
:100CA20033803380338033806E8000800080008008
:100CB2000080008000800080008000803E80638091
:100CC20060806080608063803E8000800080008061
:100CD2000080008000800E80068006801E803680A4
:100CE20066806680668066803B800080008000802F
:100CF2000080008000800080008000803E80638051
:100D020063807E80608063803E80008000800080FF
:100D12000080008000801C803680328030807C80A1
:100D22003080308030803080788000800080008089
:100D32000080008000800080008000803B80668010
:100D42006680668066803E80068066803C80008089
:100D520000800080008070803080308036803B8050
:100D62003380338033803380738000800080008042
:100D72000080008000800C800C8000801C800C8031
:100D82000C800C800C800C801E8000800080008013
:100D92000080008000800680068000800E80068031
:100DA2000680068006800680668066803C80008021
:100DB20000800080008070803080308033803380FB
:100DC20036803C80368033807380008000800080D3
:100DD2000080008000801C800C800C800C800C80C5
:100DE2000C800C800C800C801E80008000800080B3
:100DF2000080008000800080008000806E807F8004
:100E02006B806B806B806B806B80008000800080C9
:100E12000080008000800080008000806E8033802F
:100E220033803380338033803380008000800080C1
:100E32000080008000800080008000803E8063800F
:100E420063806380638063803E80008000800080D6
:100E52000080008000800080008000806E803380EF
:100E62003380338033803E803080308078800080D1
:100E72000080008000800080008000803B806680CF
:100E82006680668066803E80068006800F800080D5
:100E92000080008000800080008000806E803B80A7
:100EA2003380308030803080788000800080008005
:100EB2000080008000800080008000803E8063808F
:100EC20038800E80038063803E8000800080008036
:100ED2000080008000800880188018807E80188042
:100EE2001880188018801B800E800080008000808F
:100EF2000080008000800080008000806680668024
:100F020066806680668066803B800080008000800C
:100F12000080008000800080008000806380638009
:100F2200368036801C801C80088000800080008013
:100F320000800080008000800080008063806380E9
:100F420063806B806B807F803680008000800080B1
:100F520000800080008000800080008063803680F6
:100F62001C801C801C803680638000800080008092
:100F720000800080008000800080008063806380A9
:100F82006380638063803F80038006803C800080B2
:100F92000080008000800080008000807F8066806A
:100FA2000C801880308063807F8000800080008009
:100FB2000080008000800E80188018801880708069
:100FC20018801880188018800E80008000800080B1
:100FD2000080008000801880188018801880188097
:100FE2000080188018801880188018800080008087
:100FF20000800080008070801880188018800E8029
:10100200188018801880188070800080008000800E
:101012000080008000803B806E8000800080008025
:1010220000800080008000800080008000800080BE
:1010320000800070007000700870007000700E7008
:1010420012700C70127021702070207010700F706E
:1010520000700050005000500450005000500650E4
:101062000950055003501E500050005000500050CF
:10107200005000800080008000800080008000809E
:10108200408081807E8028801080008000800080E7
:1010920000800070007000700070007000700070BE
:1010A2000670097019706670007000700070007030
:1010B20000700050005000500A500050005006507E
:1010C2000950055003501E5000500050005000506F
:1010D200005000600060006000600260006000601C
:1010E2000760096006603F600060006000600060A9
:1010F20000600060006000600860006000600C60DA
:101102001260106009603E60006000600060006074
:1011120000600040004000400140014001400140A9
:101122000140014001400E400040004000400040AC
:1011320000400040004000400040024000400040AB
:101142000240014001400E4000400040004000408B
:1011520000400060006000600060006000600060AD
:101162000760096006603F60006000600060006028
:1011720000600070007000700070007000700E70EF
:1011820012700C70127021702070207010700F702D
:1011920000700090009000900090009000900090ED
:1011A200009049904990B691009000900090009074
:1011B200009000800080008000800080088008800D
:1011C200348044803A80018000800080008000806A
:1011D20000800050005000500150065008500C5042
:1011E2000250015001501E5000500050005000505B
:1011F20000500080008000800080008000807080AD
:101202008F803080408094808080888041803E80C2
:1012120000800060006000600260006005600060A5
:10122200006001600160016002600C60306000607B
:10123200006000400040004000400040004000408C
:101242000240014001400E40004000400540004085
:1012520000400190069008900190069008900C9032
:101262004290819081907E9000900090009000903A
:101272000090008000800080008000800080048058
:101282000A8012801480F98012800C80068000800F
:10129200008000800080008000800080008000804C
:1012A20000800080008047808880878081807E80E7
:1012B200008000800080008000800080008000802C
:1012C200188024800280FF800080288000801080A7
:1012D200008000900090009000900090009070902C
:1012E2008F903490429095908090889041903E905B
:1012F20000900080008000804280228012800A805C
:10130200068006800A803180008000800080008094
:10131200008000400340044003400440004000407D
:101322000240014001400E400040004000400040A9
:10133200004000700070007021701170097005701B
:1013420003700270057009700F70007000700070F9
:10135200007000400040004000400040004000405B
:101362000640084007400C4000400040004000405A
:10137200004001600E60106004600460046004605C
:10138200046004600460046000600060006000604B
:101392000060003000100010011001100110011057
:1013A20001100110011001100010001000100010B7
:1013B200001000800080008000800080008000809B
:1013C2004080818081807E8000800080108000804B
:1013D20000800080008000800080008014800080F7
:1013E2004080818081807E8000800080008000803B
:1013F20000800080008000800880008014800080CF
:101402004080818081807E8000800080008000801A
:10141200008000800080008000800080008070805A
:101422008F803080408080808880808041803E80B4
:10143200008000800080008000800080008070803A
:101442008F803080408080808080808041803E809C
:1014520000800080008000802080008000807080FA
:101462008F803080408080808080808041803E807C
:101472000080005000400040004000400040044016
:101482000240014001400E40004000400040004048
:101492000040005000400040044000400040044032
:1014A2000240014001400E40004000400040004028
:1014B200004000700060006000600060006000603A
:1014C200006001600160016002600C6030600060D9
:1014D20000600070006000600060006002600060F8
:1014E200006001600160016002600C6030600060B9
:1014F200006000C000C000C000C000C000C000C04A
:1015020000C049C049C436C820C820C840C480C3EE
:1015120000C000C000C000C008C000C014C000C0AD
:1015220000C049C049C436C820C820C840C480C3CE
:1015320000C000C000C000C000C000C000C000C0A9
:1015420006C049C051C43EC820C820C840C480C398
:1015520000C000C000C000C000C010C000C000C079
:1015620006C049C051C43EC820C820C840C480C378
:1015720000C00080008000802080208020802080A9
:10158200268029803180FE800080008000800080DB
:1015920000800080008000802080248020802080C5
:1015A200268029803180FE800080008000800080BB
:1015B2000080007000700070007000703070407029
:1015C20044703870207040704070407021701E70FE
:1015D20000700070007020700070007030704070F9
:1015E20044703870207040704070407021701E70DE
:1015F2000070003000300030003000300030003029
:101602000030003000300730003000300030003051
:10161200003000A000A000A004A000A000A006A02E
:1016220009A105A203A2FEA100A000A000A000A0A3
:1016320000A000800080008000800A80008000807E
:1016420006800980498087808180818042803C8039
:1016520000800080008000800180068008800C806D
:101662004280818081807E800080008000800080B6
:1016720000800070007000700170017001700170D4
:10168200017021704170417042703C7000700070B6
:101692000070006000600060006000600060006038
:1016A2000660096009601E60206020602060206082
:1016B2002060008000800080008000800080108018
:1016C20000800280418081808180818042803C80D4
:1016D20000800050005000500050005000500C504C
:1016E2001250115011500E50005000500050005036
:1016F20000500070006000600060006000600060E8
:101702000660096009600760016002600C60306079
:101712000060009000900090009000900090009077
:101722000390849008910E9102910491F890009098
:101732000090B08CB08C01018103810301018D9373
:10174200949301018E8E8E8E010090019001010111
:10175200989698960001999902020100C3C301016B
:101762000100C4C4C4C40000C5C503030100C6C649
:10177200C6C600009A9A000001009B049B04010166
:10178200C9FEE99501019C059C0501019D069D0686
:1017920001019E07080701019F090A090101A00B27
:1017A2000C0B0101A1A1A1A10100A2A2A2A2010010
:1017B200A3A3A3A30100A4A4A4A40100A58AA58AAB
:1017C2000101A60EA60E0101A70FA70F0101A81A7B
:1017D200A81A0101D7D7D7D70000A9A9A9A9010141
:1017E200AAAAAAAA0101AB1B89880101AC857F8440
:1017F2000101ADADADAD0101AE80AE800101AF839F
:10180200AF830101B08CB08C0101E0E0E0E00000A8
:10181200B186B1860101E2E2E2E20000B282B28266
:101822000101B387B3870101B40D8B910101B5B5F5
:10183200B5B50100E7E7E7E70000E8E8E8E80000FF
:10184200E9E9E9E90000FEFEFEFE0000FFFFFFFFFE
:101852000000ECC0A0C00101B68F928F01011027D9
:10186200E80364000A0001000010000110000100FA
:101872000000000000000000000000000000000066
:101882000000000000000000000000000000000056
:101892000000000000000000000000000000000046
:1018A20000000000000000000000FF0044657369B2
:1018B200676E65642062793A00202020204D6F68AF
:1018C200616D6D6164204465686768616E6920209E
:1018D20020005265616420534420636172640049B0
:1018E2006E6974204472697665002020202D2D2DAA
:1018F2003E4F4B004F50454E204452495645003111
:101902002E626D7000322E626D700031392E626D62
:10191200700032302E626D700032312E626D7000B6
:1019220032322E626D70000001002D4E414E004990
:101932004E46000002000C0072180100A407AC1809
:1019420006006004011906006604071907006C040A
:101952000D1907007304141907007A041B190700F4
:10196200810422190100A5072A190000F894EE2724
:10197200ECBBF1E0F5BFE5BFF8E1F1BDE1BD8DE003
:10198200A2E0BB27ED938A95E9F780E098E0A0E614
:10199200ED930197E9F7E6E3F9E1859195910097D7
:1019A20061F0A591B59105901590BF01F0010590E8
:1019B2000D920197E1F7FB01F0CFEFE5EDBFE8E013
:1019C200EEBFC0E6D4E00C94AF19BA93AA931A936F
:1019D2000A930E811F81EA81FB813197EA83FB839F
:1019E200319649F01F930F930F5F1F4FEC81AF9118
:1019F200BF91EC93F0CF1981088128C30E94331B59
:101A02000A851B852885398540E050E0EE81FF81FB
:101A12003197EE83FF83319681F0D8010F5F1F4F1C
:101A22000C901124D9012F5F3F4FAC91BB27F001DD
:101A3200EA1BFB0BAF01309709F001C0E7CFFA01B7
:101A42000E9423202C9608950E94F61F26970E943A
:101A52001C200E94381BEE83FF830E943D1B0E94C4
:101A6200421B50F0AE81BF8118960E94C81F0E948F
:101A72003D1B0E94172008F0B5C0AE81BF81EC91DA
:101A8200F0E0E130A0E0FA0709F04CC02C853D857A
:101A9200F901F695E7952E0F3F1FF901F170AF019D
:101AA200D901E0E0F2E00E94671F9F01EFEFF1E051
:101AB200E417F50749F00E944A1B5A934A930E9481
:101AC2005C1B09F08FC01FC00E944A1B0E94621B50
:101AD200A1E00E94671B09F085C0FE0139960E94B1
:101AE2006C1BF9010E94751BEF5FFF4F6F4F7F4F19
:101AF2000E94F11FE0E0F0E0FA93EA93A1E00E9475
:101B0200671B09F06FC00E947A1B8F01EC85E170A0
:101B120021F0F8010E94181F02C0F801FF70662729
:101B2200772764C0E230A0E0FA0711F5FE0138968B
:101B32000E946C1B9F938F93BF93AF930E94821B53
:101B4200E0E0F1E060E070E00E947F1FAF91BF91A2
:101B52008F919F910E94871BF070EE0FFF1F0E94D2
:101B62008E1B09F03FC00E947A1B662777273EC072
:101B7200E330A0E0FA07B1F5FE0138960E946C1B33
:101B82009F938F93BF93AF930E94821BE0E8F0E094
:101B920060E070E00E947F1FAF91BF918F919F9193
:101BA2000E94871BEF77F0700E940C1FFA93EA9352
:101BB200A4E00E94671BB1F4EB850E94911BEA85A9
:101BC2000E949C1BDF01CB01E0E0F9850E94A41B6F
:101BD200DF01CB01E8850E94A91BEF7FFF7F6F7FAA
:101BE2007F7004C0E1E0F0E060E070E00E9423203A
:101BF200609608950E94F61F0E94AF1B0E94B61BBA
:101C0200E250F040604070400E94BB1BF801A0858A
:101C1200B18582859385E2E0F0E060E070E00E94A9
:101C2200FB1F0E94D01E0E94C01B0E94172028F09A
:101C32000E94C51B198108813FC2F801E181F0E0D1
:101C42000E94C01B0E94301F0E94421F7F936F930D
:101C5200FF93EF93D80154960E94C81FAF91BF9192
:101C62008F919F910E94CB1E1981088125C2BA9340
:101C7200AA9324970E94AF1BAE81BF81E0E0F0E0FF
:101C8200ED93FC93AE81BF8114960E94CA1B0E9401
:101C9200C01BA130E0E0BE07E0E08E07E0E09E0757
:101CA20049F0D80118960E94C81F0E94C01B0E94CA
:101CB200172020F0E1E019810881C8C10E94B61BFB
:101CC2000E94082021F4D801AC91A33009F004C08D
:101CD200D80150960E94CA1B0E94B61BAE81BF81DA
:101CE20018960E94D31F0E94B61B0E94082021F062
:101CF2000E94C01B7FDF04C0D80150960E94C81FFB
:101D0200AE81BF811C960E94D31FE0E01981088139
:101D12009DC1BA93AA9324970E94CD1BA885B98529
:101D22000E94C41F31968F01002E012A31F01C96A9
:101D32000E94C81F0E94082011F4E3E05AC0F80173
:101D4200EF7009F051C0A885B9851C960E94D41B7A
:101D5200A885B98518960E94C81F0E94082051F4D0
:101D6200D90114960E94C41F0E171F0710F0E3E05A
:101D720040C03AC0F8010E94181FDF01F901E18159
:101D8200F0E03197EA23FB23309771F5E885F98576
:101D9200A085B1858285938557DEEC83FD836E83B2
:101DA2007F830E94DD1B0E94421B10F4E1E021C0F0
:101DB200D90118960E94C81F0E94DD1B0E9417209D
:101DC20010F0E3E016C0EC81FD816E817F81A88571
:101DD200B98518960E94D31F0E94DD1B0BDFA885D0
:101DE200B9851C960E94D31FA885B9850D931C93B3
:101DF200E0E00E9425202A9608950E94E21BAC8111
:101E0200BD8135DF1E2F103019F00E94252054C1EC
:101E12000E94E71B3A932A93EE81FF810E94EF1BF7
:101E22000E94F61FAA85BB850E94C41FEF70F07046
:101E3200EE0F0E94081FFA93EA93A0E20E94671B2A
:101E420011F0E1E001C0E0E01E2F1030F9F4D901F9
:101E52000C91003011F413E019C0F901E385E87028
:101E620069F43A932A93EE81FF81A281B381BA93F6
:101E7200AA93ABE0B0E0C2DD309709F001C006C022
:101E8200AC81BD8146DF1E2F103021F2E12F0E946E
:101E9200252012C1BA93AA9324970E941C20AC85D4
:101EA200BD8512960E94C41FE887F987FA93EA93C8
:101EB200E0E2F0E0FA93EA93ABE0B0E086DDE0E046
:101EC2005E2F2E2F38E0AA85BB850E94C41FEE83A9
:101ED200FF830E94F41B1C91113210F01F3209F48F
:101EE2002CC01E3211F0531740F0383011F41E325C
:101EF20009F023C058E03BE01FC0E0E0E03041F0D1
:101F0200E32FF0E03197A52FB0E0AE17BF070CF436
:101F12000AC00E94F41B0C910E94FC1B10830E94B9
:101F2200FC1B008309C0113610F01B3708F001C0FA
:101F320010520E94FC1B1083CCCFE22FAE81BF81D6
:101F4200F0E0EA0FFB1FAA85BB85ED93FC931132EB
:101F520010F4E1E001C0E0E0A885B9851B96EC939E
:101F6200E0E00E9423202E9608950E94E21BAC819D
:101F7200BD81AC91A03231F4EC81FD813196EC83CC
:101F8200FD83F5CFAC81BD81AC91AF3229F4EC81F8
:101F9200FD813196EC83FD83AE81BF8114960E9450
:101FA200041CAC81BD81AC91A13258F4AE81BF81D9
:101FB2005EDE1E2F0E94381BA681B781E0E0EC9303
:101FC20042C0EE81FF81FA93EA93DE01169662DF48
:101FD2001E2F1030C1F5AE81BF810FDF1E2F1030D2
:101FE20041F0133019F40E94081C09F001C014E0FA
:101FF2002AC00E94081C39F50E94E71BF901E385FB
:10200200E07111F414E01FC0F901B589A0E0E48980
:102012000E94101C0E942B1F7F936F93FF93EF93DC
:10202200F901B38DA0E0E28DF0E0EA2BFB2BAF913A
:10203200BF918F919F910E94A41BAE81BF81149684
:102042000E94D31FBECFE12F0E942520289608951B
:102052000E94F61F0E94161CEEEFF1E00E948E1BFA
:1020620011F0E3E029C00E941E1CE535AAEAFA0736
:1020720011F0E2E021C00E94161CE6E3F0E00E94AB
:102082008E1B31F40E941E1CE634A1E4FA0709F00B
:1020920002C0E0E011C00E94161CE2E5F0E00E94DE
:1020A2008E1B31F40E941E1CE634A1E4FA0709F0EB
:1020B20002C0E0E001C0E1E026960895BA93AA9337
:1020C200E4971A93E0E0E0938804E0938904EDA991
:1020D200FEA9309709F46CC13BD4E17011F0E2E043
:1020E20068C1E0E0ED87EE87EF87E88B0E942B1C4A
:1020F2000E94301C113071F50E942B1C0E94381C6A
:10210200EEEBF1E0FA93EA93A0E10E94671B11F073
:1021120013E020C0ED89E030E9F0FE017C96E08119
:102122000E94911BFE017B96E0810E949C1BDF01B5
:10213200CB01FE017A960E943F1CDF01CB01E98DA3
:102142000E94A91BED87FE876F87788B0E942B1C4C
:102152000E94301C133011F4E1E02BC1103011F059
:10216200E7E027C10E942B1C0E94381CEDE0F0E042
:10217200FA93EA93A4E20E94671B11F0E1E019C10D
:10218200FE01B7960E94421CFE01B7963D97E08180
:102192000E94101C0E94471C0E944C1C0E94082096
:1021A200E9F4FE01F5963A97E0810E94911BFE0147
:1021B200F5963B97E0810E949C1BDF01CB01FE015B
:1021C200F5963C970E943F1CDF01CB01FE01F5967C
:1021D2003D97E0810E94A91B0E94471CEC89F0E018
:1021E2000E94511C0E94301F0E94421F0E94471CE5
:1021F200FE017F960E94421C0E94561CAD85BE8540
:102202008F8598890E94751BADA9BEA91C960E9454
:10221200D31FE989ADA9BEA91196EC93FE01B2962E
:102222000E94421CFE01B2963D97E081F0E0EA2B4B
:10223200FB2BADA9BEA91496ED93FC93FE01B496B7
:102242000E94421CFE01B4963D97E0810E94101C40
:10225200ED83FE836F8378870E940820D9F4FE0104
:10226200F1963A97E0810E94911BFE01F1963B970D
:10227200E0810E949C1B0E945E1C3C970E943F1CB6
:102282000E945E1C3D97E0810E94A91BED83FE83A4
:102292006F837887FE017F960E94421C0E94561C23
:1022A200AD81BE818F819885662777270E94FB1FAB
:1022B2000E94D01E0E94511C0E94D01E7F936F93D9
:1022C200FF93EF930E94631CAF91BF918F919F91F7
:1022D200662777270E94D51EEDA9FEA90E946B1CD6
:1022E2000E947F1FEE5FFF4F6F4F7F4FE983FA839C
:1022F2006B837C83ADA9BEA918960E94D31F11E0FF
:10230200A981BA818B819C81A73FEFE0BE07E0E003
:102312008E07E0E09E0708F012E0A981BA818B8166
:102322009C81A73FEFEFBE07E0E08E07E0E09E074B
:1023320008F013E0ADA9BEA91C931330A1F4FE016D
:10234200F396E0810E94911BFE01F296E0810E94C9
:102352009C1B0E945E1C0E943F1CDF01CB01E8A96E
:102362000E94A91B02C00E94701CADA9BEA9509672
:102372000E94D31F0E94701C7F936F93FF93EF9371
:102382000E94631CAF91BF918F919F910E94751B18
:10239200ADA9BEA954960E94D31FADA9BEA912969B
:1023A200E0E0EC93EDA9FEA9E0938804F0938904A0
:1023B200E0E01881E7960895BA93AA93EC978CE22D
:1023C200A0E0B0E0E4E7F8E10E942A200E94CD1BE1
:1023D200022E032A11F4E6E068C0D9011296E0E069
:1023E200EC93FE013496D9011696ED93FC93FE010F
:1023F200B496EAABFBABFE01F096FA93EA93DE01E8
:10240200AE5BBF4F0D90BC91A02DAFDD1E2F1030E3
:1024120009F04BC0EC81E03019F0EF85E07111F06A
:10242200E3E043C0FE017996F081E0E0DF01E88D50
:102432000E94101C0E942B1F7F936F93FF93EF93B8
:10244200FE017F96F081E0E0DF01EE8DF0E0EA2B05
:10245200FB2BAF91BF918F919F910E94A41BD90139
:1024620090960E94D31FFE01B396E0810E94911BB9
:10247200FE01B296E0810E949C1BDF01CB01FE01AE
:10248200B1960E943F1CDF01CB01E8A10E94A91B6B
:10249200D9015C960E94D31FD90158960E94041C50
:1024A200D9011296E1E0EC93E0E00E942520EF963C
:1024B20023960895BA93AA932E970E941C20288DE2
:1024C200398D0E94381BEE83FF83AC89BD89E0E021
:1024D200F0E0ED93FC93EE81FF81309711F4E6E09A
:1024E200DCC0EE81FF81A281A17011F4E5E0D5C0CC
:1024F200EE81FF81A48DB58D868D978D9F938F93ED
:10250200BF93AF930E94771CEF91FF916F917F91E0
:102512000E94D01EE887F9876A877B87AE89BF89C8
:10252200882799270E94122020F4E885F985EE8BEE
:10253200FF8BEE89FF89309709F4A7C00E94771CB0
:10254200FD01BC01F170309709F051C00E94771C67
:102552000E947E1CDF01CB01EE81FF810E946B1C79
:102562000E94B21F0E94082041F50E94771C0E941F
:102572000C2031F4AE81BF8190960E94C81F03C027
:102582000E94851C61DAE88BF98B6A8B7B8BA889A8
:10259200B9898A899B890E94421B08F478C0E8891C
:1025A200F9896A897B89AE81BF8194960E94D31F83
:1025B200AE81BF811396E0E0EC930E94851C1ADB8A
:1025C200EC87FD876E877F870E94082009F45FC031
:1025D200AE81BF810E948C1C0E943D1B0E94301F55
:1025E2000E94CB1EAE81BF8198960E94D31FEE81BE
:1025F200FF81A08DB18DFD01F170A0E0B2E0AE1BB4
:10260200BF0BAD01EE89FF89E417F50710F44E897F
:102612005F89E88DF98D309719F4E0E0F0E001C0B0
:10262200F901FA93EA93E885F985A0A5B1A582A5F7
:1026320093A50E94F61FAC85BD8558960E94C41FC3
:10264200F170FA93EA93DA0114D21E2F1030F9F4E2
:10265200EE81FF810E94931CDF01CB01FA010E94EF
:10266200751BD0010E94D31F240F351FEE89FF89ED
:10267200E41BF50BEE8BFF8BAC89BD89ED91FD91CF
:10268200E40FF51FFE93EE9354CFE0E006C0AE8157
:10269200BF811296E0E0EC93E1E00E9423206A966B
:1026A20008950E94F61F60970E94AF1B002E012A18
:1026B20011F4E6E0E4C0F801A281A17011F4E5E0B2
:1026C200DEC0D8015C960E94991C0E94122040F440
:1026D200D8015C960E94C81FEA8BFB8B6C8B7D8BAA
:1026E200D80158960E94CA1BD80158960E94041C11
:1026F2000E94A01C0E940C2008F0BAC0F8010E949F
:102702006B1C0E94A51C0E94421FEA87FB876C87F4
:102712007D870E94C01B0E940C2098F40E94AA1C74
:102722000E94AF1C7F936F93FF93EF930E94B61B9F
:102732000E94AF1CAF91BF918F919F910E94172071
:1027420008F427C00E94B61BE150F0406040704080
:10275200DF01CB01EA85FB856C857D85E150F04088
:10276200604070400E94351F0E94DA1ED8015896C0
:102772000E94D31FD80158960E94991C0E94D51E10
:10278200AA8BBB8B8C8B9D8BD80194960E94BC1C10
:1027920006C0D80190960E94BC1C0E94C31CEA8508
:1027A200FB856C857D850E94A01C0E94122088F505
:1027B2000E94821B49D9EE87FF87688B798B0E9422
:1027C200821B0E94421B48F0D80118960E94C81F23
:1027D2000E94821B0E94172008F04CC00E94C31C5A
:1027E200F8010E94931CAA85BB858C859D850E9459
:1027F200CB1ED0010E94D31FAA85BB858C859D85E7
:102802000E94AA1C0E94D01EEA8BFB8B6C8B7D8BD4
:10281200C6CFF8010E94931C0E94A01C0E94CB1EEE
:10282200D0010E94D31F0E94821BE4D9EE83FF8352
:10283200688779870E940820E9F00E94A01C0E9404
:102842007E1CD8011396EC930E94AA1CF17030975B
:1028520079F0D8010E948C1CAE81BF818885998550
:102862000E94301F0E94CB1ED80198960E94D31F4F
:10287200E0E005C0D8011296E0E0EC93E1E01981B6
:10288200088166960895C49AC798C59AC698BC9A54
:10289200BF9ABD9ABE986E9A6C9A709A0895EFEF9D
:1028A200EFB9779BFECFEFB10895C49AF8DF089590
:1028B2000E94F61F1A930A93EE81E07869F0EE8186
:1028C200EF77EE83E7E70E94CC1C0E2F023020F058
:1028D2001981088127960895C49AE1DFC498DFDF41
:1028E200EE81EFB9779BFECF0E94C01BE8E10E9408
:1028F200FC1EEFB9779BFECF0E94B61B0E94261FDB
:10290200EFB9779BFECF0E94C01BE8E00E94FC1E3D
:10291200EFB9779BFECFEA81EFB9779BFECF11E04B
:10292200AE81A03409F415E9AE81A83409F417E8A0
:102932001FB9779BFECF1AE0B2DF0E2F07FF02C04E
:10294200115009F401C0F8CFE02F1981088146C463
:1029520024970E941C2097DF14E6103019F09FDFA5
:102962001150FBCF30E0E0E40E94CC1CE13009F0D2
:1029720074C0E8E4EA93AAEAB1E080E090E098DF6C
:10298200E13009F044C010E0143050F40E94D31C2E
:10299200FF93EF9384DFAF91BF91EC931F5FF4CF6E
:1029A200A885A13019F4A985AA3A09F02FC048EAEE
:1029B20051E6042E052A49F0E9EEEA93A0E0B0E0E0
:1029C20080E090E475DFE03009F403C041505040EC
:1029D200F0CF042E052A29F0EAE70E94CC1CE03051
:1029E20009F014C010E0143050F40E94D31CFF937D
:1029F200EF9355DFAF91BF91EC931F5FF4CFEE8160
:102A0200E07411F0ECE001C0E4E03E2F26C0E9EEF4
:102A12000E94CC1CE23018F432E009EE02C031E030
:102A220001E448EA51E6042E052A41F00A93A0E0A7
:102A3200B0E080E090E03CDFE03009F403C04150B8
:102A42005040F1CF042E052A39F0E0E5EA930E94C6
:102A5200A51C2EDFE03009F030E030938A0425DF38
:102A6200303011F0E0E001C0E1E00E9423202A961C
:102A720008950E94E21BE0918A04E87061F4E885FF
:102A8200F9856A857B850E94A51C0E94421FE88702
:102A9200F9876A877B8711E0E1E5EA930E94511C7E
:102AA20007DFE03009F040C020E335E7F8DE0E2F03
:102AB2000F3F19F42150304009F401C0F7CF0E3F07
:102AC20099F5AE81BF81E2E0F2E0EA1BFB0BDF0188
:102AD200EC81FD81AE1BBF0B9D01EE81FF81309722
:102AE20039F0DDDEEE81FF813197EE83FF83C9F796
:102AF200EC85FD85309791F0EC85FD853196EC876C
:102B0200FD873197FF93EF93CADEAF91BF91EC93AC
:102B1200EC81FD813197EC83FD8371F7C0DEF90111
:102B220031979F01D9F710E0C0DEE12F0E942520E6
:102B32002E960895AA9393989298E0E00E94DA1C48
:102B420021960895BA93AA939398929AE881F9816B
:102B52000E94211F0E94DA1C229608950E941C20C6
:102B6200E0E0EBBBE5BBEABBE4BB9098919A93989B
:102B720003B3112729B33327F22FE0E0E02BF12B27
:102B8200AF01939A909A919AEFEFEABBE4BBFA01F4
:102B92000E94232021C10E94E11C0E94131D30F4D7
:102BA200AFEFBFEFCFDF0E941D1DF7CF42C3BA9335
:102BB200AA930E94E11C0E94131D28F40E94261D64
:102BC2000E941D1DF8CF08C1EFE1E2BBE1BBEFEFB0
:102BD200EABBE4BB9498A1E0B0E00E94C11E949AC3
:102BE200A3EEA8DFA8E0B0E3ADDFA7EEA3DFA2E18A
:102BF200B0E0A8DFAFEE9EDFA1E3B2E1A3DFA0E089
:102C02000E942A1D0E94301DA1E094DFA0E0B1E0E5
:102C120099DFA2E00E94341DA3E08CDFA0E3B0E0C4
:102C220091DFA4E00E943A1DA8E084DFA2E0B2E0B6
:102C320089DFA9E00E943A1DAAE00E943A1DACE099
:102C42000E943A1DADE00E943A1DAFE00E943A1D7B
:102C5200A0E10E943A1D0E94401DA2E10E943A1D7D
:102C6200A3E10E943A1DA8ECB0E00E94C11EA0E1BF
:102C720061DFA0E9B6E166DF0E94401D0E94301DBF
:102C8200A2E158DFAAE1B0E05DDF0E94301DA3E1BE
:102C920051DFA0E0B8E156DFA9E24CDFAAE2B0E0E2
:102CA20051DF0E94301DA0E20E943A1DA1E20E9463
:102CB2003A1DA0E30E943A1DA1E30E943A1DA2E33D
:102CC2000E943A1DA5E30E943A1DA6E30E943A1D06
:102CD200A7E330DFA6E0B4E035DFA8E32BDFA6E010
:102CE200B0E030DFA9E326DFA4E0B4E02BDFACE301
:102CF2000E94341DADE31EDFA8E0BAE023DFA0E5A9
:102D02000E943A1D0E94471DA2E50E943A1D0E94A0
:102D12004E1DA0E60FDFA0E0B7EA14DFA1E60E9495
:102D22002A1DAAE60E943A1DA0E80E943A1DA1E8C7
:102D32000E943A1DA2E80E943A1DA3E80E943A1D91
:102D4200A4E80E943A1DA5E80E943A1DA0E9F2DE1D
:102D5200A0E1B0E0F7DEA2E90E943A1DA3E9EADEB3
:102D6200A3E0B0E0EFDEA5E9E5DEA0E1B1E0EADE56
:102D7200A7E90E943A1DA8E90E943A1DA7E0DADEFF
:102D8200A3E3B1E0DFDEABE2D5DEADE0B0E0DADE58
:102D920002DF0895BA93AA93A0E20E94551D0E94F1
:102DA200581DA1E50E94551D0E94611DA881B9818F
:102DB200C9DE12C0BA93AA931A930A93A0E20E94A0
:102DC200551D0E94581DA1E50E94551D0E94611DBE
:102DD200C5DE8F011981088126960895BA93AA93B8
:102DE20022970E941C20AE85BF85EA85FB85EA1BDF
:102DF200FB0B8F01A889B989EC85FD85EA1BFB0BCA
:102E02009F0111233AF4F8010E94E41E8F01EFEFB3
:102E1200FFEF02C0E1E0F0E0EE83FF8333233AF4F8
:102E2200F9010E94E41E9F014FEF5FEF02C041E0F3
:102E320050E0000F111F220F331FE889F989FA931E
:102E4200EA93E889F989FA93EA93AC85BD85A2DF12
:102E5200021713071CF52297F901F595E795DF0193
:102E6200F801EA1BFB0BE883F983EE85FF85AA894B
:102E7200BB89EA17FB0789F0A981AA2342F00E94C5
:102E8200721DE881F981E21BF30BE883F9830E944A
:102E92007B1DF8010E94831DE8CF22C02297F80112
:102EA200F595E795DF01F901EA1BFB0BE883F9834E
:102EB200EC85FD85A889B989EA17FB0789F0A98104
:102EC200AA2342F00E947B1DE881F981E01BF10BED
:102ED200E883F9830E94721DF9010E94831DE8CFE5
:102EE20022960E94232062960895BA93AA93EA81B9
:102EF200E030E1F12397A0E20E94951DA1E20E9439
:102F02009B1DA0E50E94951DA1E514DEA885B9854B
:102F120019DEA2E50E949B1DA3E50CDEAE81BF81F6
:102F220011DEA2E207DEEA85E883EE81FF81A88155
:102F3200B0E0EA17FB07C4F0EC85FD85E983FA836C
:102F4200E885F985A981BA81EA17FB0748F0AB81C8
:102F5200BC81F8DDE981FA813196E983FA83F0CF09
:102F6200E881EF5FE883E1CF239622C00E94A11D92
:102F72000E94A11D0E94A11D0E94A61D0E94AB1DC0
:102F82000E94A11D0E94A11D0E94A11D0E94AB1DB5
:102F92000E94B41D0E94A11DA885B9851FDF0E9451
:102FA200A11D0E94B41D0E94A61DA885B98516DF29
:102FB2002B9608950E94331B00E010E029853A8584
:102FC200A985BA85E1E0F0E0EA1BFB0BAF01E885D9
:102FD200E03099F10E94B91DF9010E94C01D0E94C2
:102FE200C71D0E94CF1D0E94D71D0E94B91D0E94BD
:102FF200DB1D0E94C71DE989FA89E21BF30BFA93D4
:10300200EA930E94D71D0E94DB1DF8010E94C01D99
:103012000E94CF1D0E94C71D0E94D71D0E94DB1D6A
:103022000E94B91D0E94CF1DE989FA89E01BF10BAC
:10303200FA93EA930E94D71D30C00E94E21D0E94BB
:10304200E91D0E94F01D0E94E91D0E94E21D0E94DE
:10305200F01D0E94B91D0E94E91D0E94F01D0E94F0
:10306200DB1D0E94E21D0E94F01D0E94E91D0E94CC
:10307200B91D0E94F01D0E94E21D0E94DB1D0E94EC
:10308200F01D0E94B91D0E94DB1D0E94F01D0E94CE
:10309200DB1D0E94B91D0E94F01D55233AF4F80170
:1030A2000F5F1F4FEE0FFF1F339610C01F930F933A
:1030B2000F5F1F4FF90121503040AF91BF910E9425
:1030C2000120EA1BFB0BEE0FFF1F35964E0F5F1F11
:1030D200201731070CF07BCF0E9423202F960895F2
:1030E2000E94331B20E030E02031E0E03E070CF08C
:1030F20045C0EB85F0E0EE0FFF1F0E94081FEC5A5F
:10310200FF4FDF01F901EE0FFF1FEA0FFB1FE491F2
:103112005E2F00E010E00830E0E01E0764F5E02FCB
:10312200A0E80E94E81EE52329F00E94F41DAD8567
:10313200BE851DC0E885E03029F40E94F41DAA85F1
:10314200BB8515C0A0918F04E8E0EA9FF001E00F73
:10315200F11FBF01FA93EA930E94071EFA93EA93C2
:103162007A936A930E94071EDF0124DEDF0112DEDA
:103172000F5F1F4FD0CF2F5F3F4FB6CFA0918F046D
:10318200AF5FA0938F04AE3160F0E0E0E0938F0474
:10319200A0919004AF5FA0939004A43110F0E0934B
:1031A20090040E9423202C960895BA93AA93ED814D
:1031B200FE81E491E03091F0ED81FE813196ED8364
:1031C200FE833197E491EA93EC81FD81FA93EA93CD
:1031D200ED81EA93AC81BD8183DFE9CF2796089523
:1031E200BA93AA93AA81BB815E9724F4A881B9817C
:1031F2005497CCF0AA81BB81E0EFF0E00E947A1FE5
:10320200DF01E8E0F0E00E947A1FA881B981EA0FAD
:10321200FB1FE883F983AA81BB81EEE1F0E00E9403
:10322200A41FEA83FB83EA81E0938F04E881E093A1
:10323200900424960895A0E20E943A1DA0E50E94FF
:103242003A1D0E94471D0E944E1DA2E50E943A1D92
:103252000E940F1EA0919107B0919207809193074F
:1032620090919407A134E1E0BE07E0E08E07E0E030
:103272009E0708F070C0A1E25DDCA0919107B091B9
:10328200920760DCA2E256DC0E94191EE0EDF2E039
:103292000E941E1EE09390079398929AE0E0E093BA
:1032A2009707E0939807A0919707B0919807A03DE0
:1032B200E2E0BE0708F049C00E94241EEF56FB4F11
:1032C200E081E09399070E94241EEE56FB4FE081B5
:1032D200E0939A070E94241EED56FB4FE081E09393
:1032E2009B07E0919907F0E00E94111F0E94301F96
:1032F2000E94291E0E94321EE6E00E94F01E0E94D9
:10330200291EE0919A07F0E00E94131F0E943B1EC3
:10331200E5E00E94F01E0E94291EE0919B07F0E06A
:103322000E94111F0E943B1EE8E00E94FC1EEBBBA4
:10333200E0919C07E5BB9198919A0E94241E3396D6
:10334200E0939707F0939807AECF939AA1E9B7E07D
:103352000E94D41B7FCF0E940F1E0895E0E0EDB9BA
:1033620033DCA0E8BFEF23DCEEEAF8E10E944A1E5C
:103372000E944D1E0E94531EA1E0B0E031DFEBEB34
:10338200F8E10E944A1E0E944D1E0E94581E0E9491
:10339200531EA3E0B0E024DFE4EDF8E10E944A1EF0
:1033A2000E944D1EA0EDB7E00E94C11E0E94531E56
:1033B200A4E0B0E015DFE1EEF8E10E944A1E0E94AF
:1033C2004D1EC6DAE03019F00E945C1EFACFECEE18
:1033D200F8E10E944A1E0E944D1E0E94601E0E9439
:1033E200531EA5E0B0E0FCDEE6EFF8E10E944A1EC3
:1033F2000E944D1E0E94641E19F00E945C1EFACFAC
:103402000E94531E0E946A1EA0E6B4E00E94DD11D3
:10341200E03019F00E945C1EF7CF0E94601E0E94ED
:103422006E1E0E94751E0E94781EA0E7B7E10E94E0
:10343200C11E0E94A01E19F00E945C1EFACF0E94BB
:10344200641E19F00E945C1EFACF0E94531E0E9455
:103452006A1EA6E6B4E00E94DD11E03019F00E9477
:103462005C1EF7CF0E94601E0E946E1E0E94751E97
:103472000E94781E0E94601EE0E0E093A407A091E3
:10348200A407AE3F40F40E94A61EA7EDBDEB92DD5D
:103492000E94B61EF4CF0E94A01E19F00E945C1E6C
:1034A200FACF79DBA0E0B0E082DB0E94BC1E0E9472
:1034B200BC1EEFEEF0E0FA93EA93EFE3F1E0FA9349
:1034C200EA93A3E2B5E68ADCEFEEF0E0FA93EA9340
:1034D2000E94BC1E0E94BC1EEFE3F1E0FA93EA9345
:1034E200A1E4B3E77BDCE0E0E093A407A091A407AA
:1034F200A436D8F4E091A407F0E0FA93EA93FA93A1
:10350200EA93A0EFB0E0AE1BBF0BBA93AA93A0E47C
:10351200B1E0AE1BBF0BBA93AA93E0E0EA93AAEA2A
:10352200BAEAE3DC0E94B61EE1CFE0E0E093A40732
:10353200A091A407AE3F40F40E94A61EA4E3B2EA03
:1035420039DD0E94B61EF4CF0E94641E19F00E945B
:103552005C1EFACF0E94531E0E946A1EACE6B4E0C3
:103562000E94DD11E03019F00E945C1EF7CF0E942C
:10357200601E0E946E1E0E94751E0E94781E0E948E
:10358200581E0E94A01E19F00E945C1EFACF0E94D3
:10359200641E19F00E945C1EFACF0E94531E0E9404
:1035A2006A1EA3E7B4E00E94DD11E03019F00E9428
:1035B2005C1EF7CF0E94601E0E946E1E0E94751E46
:1035C2000E94781E0E94581E0E94A01E19F00E949E
:1035D2005C1EFACF0E94641E19F00E945C1EFACF94
:1035E2000E94531E0E946A1EAAE7B4E00E94DD11E7
:1035F200E03019F00E945C1EF7CF0E94601E0E940C
:103602006E1E0E94751E0E94781E0E94581E0E9405
:10361200A01E19F00E945C1EFACF0E94641E19F0CF
:103622000E945C1EFACF0E94531E0E946A1EA1E8ED
:10363200B4E00E94DD11E03019F00E945C1EF7CF69
:103642000E94601E0E946E1E0E94751E0E94781EBD
:103652000E94581E0E94A01E19F00E945C1EFACF02
:1036620073CFFFCFBA93AA930E941C200895E091D2
:103672008804F09189040895AC85BD858E859F8567
:103682000895A230E0E0BE07E0E08E07E0E09E078A
:103692000895FE013896FA93EA93E885F985A485A0
:1036A200B58586859785F901662777270E94CB1E07
:1036B2000E94F11F0895A2E0B0E00E943A15E030A6
:1036C2000895EFEFF1E0FA93EA930895B0E00E94D3
:1036D2003A15E0300895FA93EA93E885F985A485CE
:1036E200B585868597850895662777270E94CB1E24
:1036F2000895E0E0F985DF01E885F0E0EA2BFB2B95
:103702000895AE85BF858889998908950E94CB1E48
:103712000E94F11FEA89FB890895FA93EA93CBCFBD
:10372200F0E00E94301FDF01CB01E8E10E94F01EB1
:10373200DF01CB010895F0E00E94301F0E942B1F91
:103742000E94DF1E0895662777270E94DF1E0895D4
:10375200FF27662777270E94DF1E08951A930A9390
:1037620000918804109189040895EA81FB816C819B
:103772007D810895EA83FB836C837D830895AA810A
:10378200BB818C819D810895E0E0F0E060E070E013
:1037920008950E94C81FEECF0E941E202091880427
:1037A2003091890408950E94CE1FEF5FFF4F6F4F43
:1037B2007F4F0E94D81F0895AC81BD818E819F8169
:1037C2000895BA93AA930E941E200895A091880496
:1037D200B091890416962D913C910895A485B585E2
:1037E200868597850895E22F2F5FAE81BF81F0E035
:1037F200AE0FBF1F0895E52F5F5FA885B985F0E082
:10380200EA0FFB1F0895C0DF0E94D31F0895AE8107
:10381200BF8112960E94C41FE385E0300895F0E054
:10382200EA2BFB2B662777270895EC81FD81FA931B
:10383200EA939BDF0E94F11F0895EC81FD81E181F3
:10384200FE2FE0E00F01AC81BD81EC91F0E0E029B8
:10385200F1290895FE017196FA93EA930895AF85CE
:10386200B88989899A890E9429101E2F0895EF85A7
:10387200F88969897A890E94F11F0895F081E0E050
:1038820062CF3C97F081E0E0DF010895E987FA8793
:103892006B877C870895E985FA856B857C85089519
:1038A200A985BA858B859C850895FE017F963D97F3
:1038B200E081F0E0EA2BFB2B0895DF01CB01FE0152
:1038C200F1960895EDA9FEA9A481B581FD010E949A
:1038D200181F0895E181F0E00E94301F0895EDA9BC
:1038E200FEA97CDFD8DF0E94CB1E0895EE81FF8106
:1038F200A08DB18D828D938D0895E0E0F2E060E0BD
:1039020070E00E947F1F0895EE81FF81A4A1B5A1FE
:1039120086A197A108951396EC91EF5FEC93E15085
:10392200F0E0089578960F01DF010E94C81F089504
:103932000E94C81FAA89BB898C899D890895AA897A
:10394200BB898C899D890895A0E0B2E080E090E077
:103952000895EA89FB896C897D890895E150F040D8
:1039620060407040DF01CB01EA85FB856C857D8577
:103972000E947F1F08950E94C81FEE87FF87688BF1
:10398200798B0895EE85FF8568897989D8019496A7
:103992000E94D31F0895EA93A0E0B0E080E090E097
:1039A2000C945914E12FF0E0DE011696EA0FFB1F8A
:1039B2000895EBBBE881E5BB9198919A939A08959B
:1039C2002497A0E20E949B15A0E0B0E00E94A315FC
:1039D200A1E20E949B15A0E0B0E00E94A315A0E521
:1039E2000E949B15A0E0B0E00E94A315A1E50E94F1
:1039F2009B15AFEEB0E00E94A315A2E50E949B15B5
:103A0200A0E0B0E00E94A315A3E50E949B15AFE3DE
:103A1200B1E00E94A315A2E20E949B15E0E00E9481
:103A2200EC1F08950E94E21FA030ECE2BE07E1E025
:103A32008E07E0E09E0708950E94DD1FEF5FFF4FB3
:103A42006F4F7F4F0E94E71F0895AC81BD810C9498
:103A5200A3150E949B15A1E0B0E00C94A315A2E36C
:103A6200B0E00C94C11E0E949B15A0E0B7E00C943C
:103A7200A3150E949B15A0E0B0E00C94A315A1E150
:103A82000E949B15A7E0B0E00C94A315A1E50E944B
:103A92009B15AFEEB0E00C94A315A3E50E949B1515
:103AA200AFE3B1E00C94A3150E949B15CECFA1E227
:103AB2000E949B15AA81BB810E94A315A0E5F4CFA9
:103AC200A2E50E949B15AA81BB810E94A315A3E5D2
:103AD2000E949B15AA81BB810E94A315A2E20C94AD
:103AE2009B15E885F985A889B989EA0FFB1FE88B40
:103AF200F98B0895FA01AA89BB89EA0FFB1FEA8BA9
:103B0200FB8B0895A881B981EA0FFB1FE883F98333
:103B1200EA89FB89FA93EA93EA89FB89FA93EA93A1
:103B2200AE85BF850C94CB160E949B15AC85BD85D6
:103B32000C94A3150E949B15AA85BB850C94A31512
:103B4200E985FA85FA93EA930895ED85FE85FA935D
:103B5200EA930895A885B9850E94EF16ED81FE814A
:103B6200FA93EA930895ED81FE81FA93EA93EDCFF9
:103B7200ED85FE85E01BF10BFA93EA930895AD857E
:103B8200BE85EA0FFB1FFA93EA930895F801A9890B
:103B9200BA89EA0FFB1FFA93EA930895F901A989FA
:103BA200BA89EA0FFB1FFA93EA930895AE85BF859F
:103BB2000C94EF16ED85FE85E21BF30BFA93EA9364
:103BC2000895ED85FE85E00FF11FFA93EA930895BB
:103BD200ED85FE85E20FF31FFA93EA930895AA8515
:103BE200BB850C94CB16A0918F04E8E0EA9FF0010C
:103BF200E00FF11FFA93EA93A0919004E0E1EA9FAB
:103C0200F001E20FF31FFA93EA930895A091900452
:103C1200E0E1EA9FF001E20FF31F0895E0E0E09394
:103C22009107E0939207E0939307E0939407089536
:103C3200E1E9F4E0FA93EA930895FA93EA93AEE89D
:103C4200B7E00C945B12E0919707F0919807089502
:103C5200E0939C07F0939D0760939E0770939F07E4
:103C62000895A0919C07B0919D0780919E07909125
:103C72009F0708950E94301FE093A007F093A107C9
:103C82006093A2077093A307ECDF0E94CB1EE0DFD4
:103C9200E8CFFA93EA9315CDE0E0EA93A0E8BFEF0C
:103CA2000C94D618E0E0F0E0FA93EA930895A8EBBA
:103CB200BBE00C94C11EA4E6B0E00C94C11EA8EEB9
:103CC200B3E00C94C11EA2E6B7E00E945F10E030A0
:103CD2000895A6E0B0E00C94F118AAE0B0E080E00C
:103CE20090E00E945213A4CFE4E0F0E0A6CFA091AE
:103CF2009404B0E0E0E0F2E00E94621FBF01A091F4
:103D02009304E0E4EA9FF001DB01AE0FBF1FE091F4
:103D12009204F0E0AE0FBF1FE0919104F0E0EA0FD1
:103D2200FB1FE0939507F0939607A0919507B0913A
:103D32009607882799270E9452130C941C19A0E019
:103D4200B0E00E945F10E0300895E8E7F0E0FA93F7
:103D5200EA93E0EAF0E0FA93EA93E091A407F0E054
:103D6200FA93EA93E0E0EA930895E091A407EF5F03
:103D7200E093A4070895E1E0F0E0FA93EA9308954E
:103D8200109639F080ED97E00197F1F7A895119719
:103D9200C9F70895EA0FFB1F681F791F0895EA1BF0
:103DA200FB0B680B790B0895AE1BBF0B860B970BB1
:103DB2000895EA23FB23682379230895EA2BFB2B3A
:103DC200682B792B0895F195E195F0400895EE2343
:103DD2000E2EEA2F19F0E6950A94E9F70895EE23DC
:103DE2000E2EFD01BC0131F0EE0FFF1F661F771F83
:103DF2000A94D1F70895EE230E2EFD01BC0131F095
:103E020076956795F795E7950A94D1F70895EE0FA1
:103E1200FF1FEE0FFF1FEE0FFF1FEE0FFF1F089594
:103E2200F595E795F595E795F595E7950895F69556
:103E3200E795F695E795F695E795F695E795089552
:103E4200EF2FFF27E7FDFFEF0895E62FF72F60E042
:103E520070E008956E2F7F2FE0E0F0E008956F2F5D
:103E6200660F660B762F0895E095F0956095709534
:103E72000895FA9FF02DEB9FF00DEA9FE02DF10DD2
:103E820008957A9F702D6B9F700DF89F700DE99FBA
:103E9200700D6A9F602D710DFB9F600D711DE89F73
:103EA200600D711D8827FA9FF02D610D781FEB9F21
:103EB200F00D611D781FEA9FE02DF10D681F781F3C
:103EC200089553D0D6DF0EF47EDF08950024112426
:103ED20090E1AA0FBB1F001C111C0E1A1F0A18F436
:103EE2000E0E1F1E01C0A1609A9599F7FD01D00127
:103EF20008953BD0EBDF0EF466DF08953F934F93B6
:103F02005F93002411244427552730E2AA0FBB1FD8
:103F1200881F991F001C111C441F551F0E1A1F0ACF
:103F2200460B570B28F40E0E1F1E461F571F01C0CB
:103F3200A1603A9559F7FD01BC01D001CA015F9118
:103F42004F913F910895E894B7FF04C0A095B095B2
:103F520011966894F7FD37DFB9DFFD010EF433DF08
:103F62000895CCDFFD01BC010895E894F7FF02C07B
:103F72002ADF6894B7FF06C0A095B095119600F8A5
:103F8200039400FA0895ED91FC9111970895ED9133
:103F9200FD916D917C9113970895ED91FD916D9135
:103FA2007D910895ED93FD936D937C9308957E9397
:103FB2006E93FE93EE930895E881F9816A817B8185
:103FC2000895A881B9818A819B810895E883F98344
:103FD2006A837B830895E883E983EA83EB83089508
:103FE2007A936A93FA93EA9308959A938A93BA9387
:103FF200AA930895182E862F612D192E972F712DB1
:104002001B2EBF2FF12D1A2EAE2FE12D08953097C2
:1040120060407040089500240A160B06080609063F
:104022000895EA17FB07680779070895AE17BF07D7
:104032008607970708955A934A933A932A931A93B5
:104042000A9308955D814C813B812A8119810881FF
:104052000895AC0FBD1F05900D928A95E1F7089562
:00000001FF
